:020000040800F2
:100000009808002045010008B91E0008BB1E000822
:10001000BF1E0008C31E0008C71E00080000000025
:10002000000000000000000000000000CB1E0008DF
:10003000CD1E000800000000CF1E0008D11E0008E1
:100040005F0100085F0100085F0100085F01000810
:100050005F0100085F0100085F0100085F01000800
:100060005F0100085F0100085F0100085F010008F0
:100070005F0100085F0100085F0100085F010008E0
:100080005F0100085F0100085F0100085F010008D0
:100090005F0100085F0100085F0100085F010008C0
:1000A0005F0100085F0100085F0100085F010008B0
:1000B000F73100085F0100085F0100085F010008D8
:1000C0005F0100085F0100085F0100085F01000890
:1000D0005F0100085F0100085F010008D91E0008E9
:1000E0005F0100085F0100085F0100085F01000870
:1000F0005F0100085F0100085F0100085F01000860
:100100005F0100085F0100085F0100085F0100084F
:100110005F0100085F0100085F0100085F0100083F
:100120005F0100085F0100085F0100085F0100082F
:10013000DFF80CD004F0B6F800480047651E000850
:10014000980800200648804706480047FEE7FEE77B
:10015000FEE7FEE7FEE7FEE7FEE7FEE7FEE7FEE777
:1001600047020008310100080CB500200190009002
:100170006C48006840F480306A49086000BF6948F4
:10018000006800F4003000900198401C0190009835
:1001900018B90198B0F5A06FF1D16248006800F479
:1001A000003010B10120009001E000200090009884
:1001B000012843D15C48006840F010005A490860AB
:1001C0000846006820F0030008600846006840F018
:1001D0000200086053484068524948600846406839
:1001E00048600846406840F48060486008464068BF
:1001F00020F47C1048600846406840F4E8104860ED
:100200000846006840F08070086000BF45480068FC
:1002100000F000700028F9D04248406820F0030048
:10022000404948600846406840F00200486000BF0E
:100230003C48406800F00C000828F9D10CBD10B50E
:10024000FFF792FF10BD10B53648006840F001007E
:1002500034490860084640683449084031494860DC
:1002600008460068324908402E4908600846006880
:1002700020F4802008600846406820F4FE004860B2
:100280004FF41F008860FFF7DAFF4FF00060294944
:10029000086010BD10B5002100200022214B5B68D2
:1002A00003F00C0121B1042906D0082928D107E068
:1002B000214B224C236027E01F4B204C236023E07E
:1002C000184B5B6803F47010164B5B6803F48032C4
:1002D000022303EB904022B9194B4343174C236090
:1002E0000DE0104B5B6803F4003323B1144B434320
:1002F000124C236003E0104B4343104C236003E097
:100300000D4B0E4C236000BF00BF064B5B68C3F370
:1003100003130C4CE15C094B1B68CB40074C23607A
:1003200010BD000000100240002002400000FFF855
:10033000FFFFF6FE08ED00E000127A00000000204A
:1003400000093D000400002031490143314A116099
:10035000704770B5002100230F22C47804B32D4CE0
:10036000246804F4E064C4F5E064210AC1F10403E4
:10037000CA40447804FA03F1847814402143090107
:10038000254C0678A155047804F01F050124AC40E3
:1003900005786D11AD0005F1E025C5F8004109E0D3
:1003A000047804F01F050124AC401C4D067876113A
:1003B00045F8264070BD1A4A0A400243154B1B1FE0
:1003C0001A60704739B1134A121D12680243114B6B
:1003D0001B1D1A6006E00F4A121D126882430D4B66
:1003E0001B1D1A607047042808D14FF0E0210969ED
:1003F00041F004014FF0E022116107E04FF0E021ED
:10040000096921F004014FF0E022116170470000FA
:100410000000FA050CED00E000E400E080E100E0FF
:1004200080FFFF1F002044490860091D0860091D66
:100430000860091D086041483F4914310860704751
:1004400000213D498279002A3AD00A4612680368A1
:100450009A430B461A600A1D126803689A430B1DE3
:100460001A60027911440A6803681A430A60324A22
:100470000832126803689A432F4B08331A601A1D1A
:10048000126803689A432C4B0C331A604279102A85
:100490000ED11A1F126803681A43274B08331A60DB
:1004A0001A1D126803681A43234B0C331A600DE0BF
:1004B0002149427911440A6803681A430A6005E039
:1004C000027911440A6803689A430A607047002160
:1004D000016001710C214171002181717047164941
:1004E000103109680143144A103211607047014607
:1004F0000020114A143212680A400AB1012000E0BB
:10050000002070470C4914310860704701460020F4
:100510000022094B1B6803EA0102074B14331B68D6
:100520000B4013B10AB1012000E0002070470249DE
:10053000143108607047000000040140FFFF0F0005
:1005400010B50446CC48844208D10121042000F0B3
:100550002DFB0021042000F029FB46E0C74884421F
:1005600008D10121082000F021FB0021082000F023
:100570001DFB3AE0C248844208D10121102000F05E
:1005800015FB0021102000F011FB2EE0BD48844235
:1005900008D10121202000F009FB0021202000F0DB
:1005A00005FB22E0B848844208D10121402000F038
:1005B000FDFA0021402000F0F9FA16E0B348844229
:1005C00008D10121802000F0F1FA0021802000F004
:1005D000EDFA0AE0AE48844207D10121801500F00F
:1005E000E5FA0021A01500F0E1FA10BD10B50121D7
:1005F000084600F0DBFA0021012000F0D7FA10BD18
:100600002DE9F041024600250026002000230024A9
:10061000002791F803C00CF00F0591F803C00CF00F
:10062000100CBCF1000F03D091F802C04CEA050594
:1006300091F800C0BCF1000F31D0146800202BE00D
:100640004FF0010C0CFA00F3B1F800C00CEA0306FD
:100650009E4220D183004FF00F0C0CFA03F7BC43ED
:1006600005FA03FC4CEA040491F803C0BCF1280F1E
:1006700006D14FF0010C0CFA00FCC2F814C00AE0DD
:1006800091F803C0BCF1480F05D14FF0010C0CFAF2
:1006900000FCC2F810C0401C0828D1D31460B1F887
:1006A00000C0BCF1FF0F34DD546800202EE000F1E3
:1006B000080C4FF0010808FA0CF3B1F800C00CEA7E
:1006C00003069E4221D183004FF00F0C0CFA03F772
:1006D000BC4305FA03FC4CEA040491F803C0BCF1E6
:1006E000280F05D100F1080C08FA0CF8C2F81480A4
:1006F00091F803C0BCF1480F07D100F1080C4FF08E
:10070000010808FA0CF8C2F81080401C0828CED363
:100710005460BDE8F0814FF6FF71018002218170C5
:100720000421C17070470246002093680B400BB152
:10073000012000E0002070470146886880B27047C1
:1007400002460020D3680B400BB1012000E00020DE
:1007500070470146C86880B27047016170474161C7
:1007600070470AB1016100E041617047C1607047A4
:100770004FF480320A4382618161826182698269B9
:10078000704702460020434B18684FF680731840AC
:1007900040EA021008433F4B186070473E49C86169
:1007A0007047F0B50A46002300240021002500F020
:1007B0000046B6F1004F02D1364EF16901E0354EE8
:1007C0007168C0F3034583B200F44016B6F5401FCC
:1007D00008D121F070612F4E766826F070662D4F9B
:1007E0007E6012E000F48016B6F5801F06D1032665
:1007F00006FA05F4A14341F0706106E0460D3601AA
:1008000003FA06F6B14341F0706122B1460D36019C
:1008100003FA06F6314300F00046B6F1004F02D16C
:100820001C4EF16101E01B4E7160F0BD30B500223D
:100830008B071C0F0F2303FA04F2164B08338C109E
:1008400053F824309343134C08348D1044F825306A
:1008500023468C1053F824308C07240F00FA04F43C
:1008600023430C4C08348D1044F8253030BD0A4920
:10087000DC3108607047000000080140000C0140B6
:10088000001001400014014000180140001C01400C
:10089000002001400000014000002042DF480068C5
:1008A00040F00100DD49086008464068DC49084026
:1008B000DA49486008460068DA490840D7490860C4
:1008C0000846006820F4802008600846406820F44C
:1008D000FE0048604FF41F0088607047CF490968E8
:1008E00021F48031CD4A11601146096821F480213C
:1008F0001160B0F5803F03D0B0F5802F0ED106E037
:10090000C649096841F48031C44A116007E0C3490F
:10091000096841F4A021C14A116000E000BF00BF96
:10092000704710B501460022002300204A11012A19
:1009300002D1BA4C236806E0022A02D1B74C236ADE
:1009400001E0B64C636A01F01F02012494401C4090
:100950000CB1012000E0002010BD38B5002000904F
:100960000024002500BF3120FFF7DBFF054600987B
:10097000401C00900098B0F5A06F01D0002DF2D07F
:100980003120FFF7CEFF08B1012400E0002420460B
:1009900038BD01460020A14A106820F0F80040EA66
:1009A000C10010607047A0490860704702460020EF
:1009B0009A4B586820F47C1042EA01031843974B85
:1009C0005860704798490866704701460020934A6E
:1009D000506820F003000843506070478F4840681B
:1009E00000F00C007047014600208C4A506820F04F
:1009F000F00008435060704701460020874A506865
:100A000020F4E06008435060704701460020834AAC
:100A1000506820F4605040EAC1005060704729B12E
:100A20007E4A527A02437D4B5A7204E07B4A527AE4
:100A300082437A4B5A7270477B49D83108607047BD
:100A400001460020754A506820F440400843506039
:100A500070470021714A20321170704A82F82010CC
:100A6000012802D004280AD104E001216B4A203277
:100A7000117005E00521694A2032117000E000BFC5
:100A800000BF70476949086070476449096A0143BB
:100A9000624A11627047654944390860704730B551
:100AA00000210022002400235C4D6D6805F00C013C
:100AB00021B1042905D0082923D105E05C4D05604A
:100AC00022E05B4D05601FE0544D6D6805F4701227
:100AD000524D6D6805F48034022505EB92421CB935
:100AE000544D554305600BE04C4D6D6805F40035E1
:100AF0001DB1504D5543056002E04D4D5543056015
:100B000002E04B4D056000BF00BF444D6D6805F02D
:100B1000F0010909484D6B5C0568DD4045603F4DBB
:100B20006D6805F4E061090A434D6B5C4568DD4082
:100B300085603A4D6D6805F46051C90A3E4D6B5CA5
:100B40004568DD40C560354D6D6805F44041890B51
:100B50003A4D6B5CC568B5FBF3F5056130BD29B155
:100B60002E4A526902432D4B5A6104E02B4A5269C6
:100B700082432A4B5A61704729B1284A926902433D
:100B8000264B9A6104E0254A92698243234B9A617D
:100B9000704729B1214AD2690243204BDA6104E04F
:100BA0001E4AD26982431D4BDA61704729B11B4A44
:100BB000D2680243194BDA6004E0184AD2688243D3
:100BC000164BDA60704729B1144A12690243134B7D
:100BD0001A6104E0114A12698243104B1A6170478E
:100BE00012494039086070470F49C86470470B4983
:100BF000C87170470948406A40F0807007494862F0
:100C0000704701460020054A92680A400AB1012057
:100C100000E00020704701498872704700100240D0
:100C20000000FFF8FFFFF6FE00004242800442424F
:100C300000127A0000093D0014000020240000206A
:100C400010B50446FE48844208D10121C014FFF7C4
:100C5000ADFF0021E014FFF7A9FFC4E0B4F1804F1D
:100C600008D101210846FFF7AEFF00210120FFF760
:100C7000AAFFB8E0F348844208D101210220FFF71F
:100C8000A2FF00210220FFF79EFFACE0EE48844265
:100C900008D101210420FFF796FF00210420FFF76F
:100CA00092FFA0E0E948844208D101210820FFF723
:100CB0008AFF00210820FFF786FF94E0E448844281
:100CC00008D101211020FFF77EFF00211020FFF73F
:100CD0007AFF88E0DF48844208D101212020FFF715
:100CE00072FF00212020FFF76EFF7CE0DA4884428B
:100CF00008D101214014FFF759FF00216014FFF7CC
:100D000055FF70E0D548844209D10121C804FFF79E
:100D10004DFF00214FF40020FFF748FF63E0D0486B
:100D2000844209D101210805FFF740FF00214FF45B
:100D30008010FFF73BFF56E0CA48844209D10121E9
:100D40004805FFF733FF00214FF40010FFF72EFF97
:100D500049E0C548844208D101214020FFF733FF14
:100D600000214020FFF72FFF3DE0C048844208D11A
:100D700001218020FFF727FF00218020FFF723FFBC
:100D800031E0BB48844208D101218015FFF71BFFE9
:100D90000021A015FFF717FF25E0B648844209D1CE
:100DA00001210804FFF702FF00214FF48030FFF714
:100DB000FDFE18E0B048844209D101214804FFF744
:100DC000F5FE00214FF40030FFF7F0FE0BE0AB48DA
:100DD000844208D101218804FFF7E8FE00214FF486
:100DE0008020FFF7E3FE10BD00220288944B98425A
:100DF0000ED0994B98420BD0B0F1804F08D0914B58
:100E0000984205D0904B984202D0904B984204D122
:100E10004FF68F731A404B881A438D4B984207D078
:100E20008C4B984204D04FF6FF431A40CB881A43AC
:100E300002808B8883850B880385814B98420BD079
:100E4000854B984208D08B4B984205D08A4B9842EC
:100E500002D08A4B984201D10B7A03860123838208
:100E6000704770B5002400220023058C4FF6FE76F3
:100E700035400584028C8388048B4FF68F752C4097
:100E8000B51E2C400D882C43751E2A400D892A431F
:100E90004D882A436A4DA8420BD06F4DA84208D016
:100EA000744DA84205D0744DA84202D0734DA8429B
:100EB00013D14FF6F7752A404D892A434FF6FB753B
:100EC0002A408D882A434FF6FF652B404FF6FF5589
:100ED0002B408D892B43CD892B4383800483CD8880
:100EE0008586028470BD70B5002400220023058C25
:100EF0004FF6EF7635400584028C8388048B48F6E4
:100F0000FF752C404FF6FF452C400D884FF6FF76BD
:100F100006EA05252C434FF6DF752A400D8906EABF
:100F200005152A434D8806EA05152A43444DA84273
:100F300002D0494DA8421DD14FF67F752A404D89F8
:100F40004FF6FF7606EA05152A434FF6BF752A408D
:100F50008D8806EA05152A434FF6FF352B404FF2E0
:100F6000FF752B408D8906EA85052B43CD8906EA5E
:100F700085052B4383800483CD880587028470BD5B
:100F800070B5002400220023058C4FF6FF66354023
:100F90000584028C8388848B4FF68F752C404FF626
:100FA000FC752C400D882C434FF6FF552A400D89C7
:100FB0004FF6FF7606EA05252A434D8806EA052501
:100FC0002A431F4DA84202D0234DA8421DD14FF203
:100FD000FF752A404D894FF6FF7606EA05252A431C
:100FE0004FF6FF352A408D8806EA05252A434EF63E
:100FF000FF752B404DF6FF752B408D8906EA0515D0
:101000002B43CD8906EA05152B4383808483CD8845
:101010008587028470BD70B5002200230024058CF2
:101020004EF6FF7635400584038C8488828B48F623
:10103000FF752A404FF6FF452A400D8820E000004A
:10104000002C01400004004000080040000C00405B
:10105000001000400014004000340140004C0140EA
:10106000005001400054014000180040001C0040A6
:101070000020004000400140004401400048014081
:101080004FF6FF7606EA05252A434DF6FF752B40FD
:101090000D8906EA05352B434D8806EA05352B43B5
:1010A000FA4DA84202D0FA4DA84208D14BF6FF757E
:1010B0002C408D894FF6FF7606EA85152C438480F7
:1010C0008283CD88A0F84050038470BD828B4FF29C
:1010D000FF331A408283828B4FF6FF7303EA0123AA
:1010E0001A4382837047F0B50C4615460022002152
:1010F0000026078C4EF6FF7C07EA0C070784828BDC
:10110000018C4FF6FF7707EA043640F6FF473A4076
:101110004FF6FF7707EA05273A434FF6FF7707EACE
:1011200003373A43D94FB8420ED0D94FB8420BD00B
:10113000B0F1804F08D0D74FB84205D0D64FB84253
:1011400002D0D64FB84206D14DF6FF77394046F46B
:101150008057394305E047F6FF57394044F480573C
:10116000394382830184F0BD828B4FF6F3731A40BA
:101170008283828B0A4382837047F0B50C46154602
:10118000002200210026078C4FF6FF6C07EA0C07AF
:101190000784828B018C4FF6FF7707EA04264FF60F
:1011A0000C773A404FF6FF7707EA03172F433A438D
:1011B000B64FB8420ED0B64FB8420BD0B0F1804F08
:1011C00008D0B44FB84205D0B34FB84202D0B34FA5
:1011D000B84206D14FF6FF57394046F4807739437D
:1011E00005E04FF2FF57394044F48077394382835A
:1011F0000184F0BD028B4FF2FF331A400283028B51
:101200004FF6FF7303EA01231A4302837047F0B5D8
:101210000C461546002200210026078C4FF6EF7C75
:1012200007EA0C070784028B018C4FF6FF7707EA69
:10123000041640F6FF473A404FF6FF7707EA0337B8
:101240003A434FF6FF7707EA05273A438F4FB842F4
:101250000ED08F4FB8420BD0B0F1804F08D08D4FD9
:10126000B84205D08C4FB84202D08C4FB84206D15C
:101270004FF6DF77394046F01007394305E04FF667
:101280005F77394044F01007394302830184F0BD91
:10129000028B4FF6F3731A400283028B0A430283D8
:1012A0007047F0B50C46154600220021068C4FF61B
:1012B000FE773E400684028B018C4FF60C7632405E
:1012C0007E1C06EA03162E433243704EB0420ED007
:1012D0006F4EB0420BD0B0F1804F08D06D4EB0428F
:1012E00005D06D4EB04202D06C4EB04206D14FF6E2
:1012F000FD76314044F00106314305E04FF6F576C6
:10130000314044F00106314302830184F0BD70B5E1
:1013100005460C465D4885420ED05D4885420BD09F
:10132000B5F1804F08D05B48854205D05A488542C8
:1013300002D05A48854200D100E000BF208850B951
:101340002389A28861882846FFF7ABFFE1882846F9
:10135000FFF79EFF25E0208804280AD12389A28870
:1013600061882846FFF753FFE1882846FFF742FFD0
:1013700017E0208808280AD12389A2886188284696
:10138000FFF7FBFEE1882846FFF7EEFE09E0238920
:10139000A28861882846FFF7A6FEE1882846FFF765
:1013A00095FE70BD2DE9F04105460C46002601274B
:1013B000608808B9022600E00026A088012801D133
:1013C000022700E001272088A0B92389A28861882C
:1013D0002846FFF766FFE1882846FFF759FF238973
:1013E0003A4631462846FFF712FFE1882846FFF7C4
:1013F00001FF13E02389A28861882846FFF707FFD1
:10140000E1882846FFF7F6FE23893A46314628460A
:10141000FFF747FFE1882846FFF73AFFBDE8F08174
:101420000A884B881A438B881A43CB881A430B8946
:101430001A434B891A438B891A43A0F844207047FA
:101440004FF6FF71818000210180C18041800172CF
:1014500070470021018041808180C18001814181EC
:101460008181C181704700210180418001218180FB
:101470000021C1800181704700210180418081806D
:10148000C18001814181818170470000002C0140B1
:10149000003401400004004000080040000C0040FF
:1014A00021B1028842F00102028004E002884FF676
:1014B000FE731A400280704731B1B0F8442042F404
:1014C0000042A0F8442005E0B0F84420C2F30E0228
:1014D000A0F8442070471AB183890B43838102E04E
:1014E00083898B43838170478182704741EA02037D
:1014F000A0F8483070471AB183890B43838102E01A
:1015000083898B438381704701894FF6F8721140BC
:10151000018170470A46002101894FF68F731940F7
:1015200011430181704730B504460D4629462046D7
:10153000FFF7F0FF208940F00700208130BD2DE942
:10154000F04104460D4616461F46602D06D13B4627
:10155000012231462046FFF75AFE05E03B460122B4
:1015600031462046FFF79DFE29462046FFF7D2FF71
:10157000208940F007002081BDE8F08130B50C469D
:1015800000210189C9B24FF6FF7505EA032515430D
:1015900025432943018130BD2DE9F04105460E4622
:1015A00017469846002443463A4631462846FFF7F8
:1015B000E5FF2C894FF6F870044044F007044FF61D
:1015C0008F70044044F070042C81BDE8F081F0B5C8
:1015D00004460D4616461F463B46324629462046DF
:1015E000FFF7CCFF208940F480402081F0BD0185C9
:1015F000828270470A46002101884FF68F73194096
:10160000114301807047F0B50C4615461E46002177
:10161000002200230189028B038C4FF6F8773940B2
:1016200021434FF6FC473A4040F201173A434FF648
:10163000DD773B404FF6FF7707EA06172F433B4322
:10164000018102830384F0BD0A460021018B4FF61D
:101650008F7319401143018370470A460021018BA3
:1016600048F6FF7319404FF6FF7303EA022319434C
:10167000018370470A460021818B4FF68F73194012
:101680001143818370470A460021818B48F6FF731E
:1016900019404FF6FF7303EA022319438183704711
:1016A00021B1028842F08002028004E002884FF6F5
:1016B0007F731A400280704721B1828842F0040291
:1016C000828004E082884FF6FB731A408280704764
:1016D00021B1828842F00802828004E082884FF6BD
:1016E000F7731A408280704721B1828842F001026C
:1016F000828004E082884FF6FE731A408280704731
:101700000A460021018B4FF6F773194011430183FC
:1017100070470A460021018B4FF2FF7319404FF6C4
:10172000FF7303EA02231943018370470A4600212D
:10173000818B4FF6F77319401143818370470A4636
:101740000021818B4FF2FF7319404FF6FF7303EABC
:1017500002231943818370470A460021018B4FF60B
:10176000FB7319401143018370470A460021018B26
:101770004FF6FF3319404FF6FF7303EA0223194374
:10178000018370470A460021818B4FF6FB73194095
:101790001143818370470A460021818B4FF6FF3346
:1017A00019404FF6FF7303EA022319438183704700
:1017B0000A460021018B4FF67F73194011430183C4
:1017C00070470A460021018BC1F30E014FF6FF73EB
:1017D00003EA02231943018370470A460021818BE3
:1017E0004FF67F7319401143818370470A460021E9
:1017F000818BC1F30E014FF6FF7303EA02231943F5
:10180000818370470A460021018C4FF6FD73194011
:101810001143018470470A460021018C4FF6F7738B
:1018200019401143018470470A460021018C4FF68C
:10183000DF7319404FF6FF7303EA02131943018463
:1018400070470A460021018C4FF67F7319404FF60E
:10185000FF7303EA02131943018470470A4600210B
:10186000018C4FF6FF5319404FF6FF7303EA022332
:101870001943018470470A460021018C4FF2FF731F
:1018800019404FF6FF7303EA02231943018470479E
:101890000A460021018C4DF6FF7319404FF6FF7385
:1018A00003EA023319430184704730B50023012451
:1018B0008C40A3B2048C9C430484048C02FA01F58E
:1018C000ADB22C43048430BD30B5002304248C40D9
:1018D000A3B2048C9C430484048C02FA01F5ADB2DB
:1018E0002C43048430BD70B5034600200024184604
:1018F000183001258D40ACB21D8CA5431D8409B163
:10190000082909D100EB6100056825F07005056024
:101910000568154305600EE00D1FC5F34E0528440C
:10192000056825F4E045056005684FF6FF7606EA90
:1019300002263543056070BD21B1028842F00202E3
:10194000028004E002884FF6FD731A40028070475F
:1019500021B1028842F00402028004E002884FF6BE
:10196000FB731A400280704721B1828842F08002E6
:10197000828004E082884FF67F731A40828070472D
:1019800002884FF6F7731A40028002880A430280E9
:10199000704782884FF68F731A40828082880A438C
:1019A0008280704702894FF6F8731A4002810289DB
:1019B0000A430281704702894FF67F731A40028101
:1019C00002890A430281704781847047818570478C
:1019D000818670470187704781877047A0F8401063
:1019E000704702884FF6FF431A40028002880A437C
:1019F000028070470146888E70470146088F704705
:101A00000146888F70470146B1F840007047014693
:101A1000888C70470146088D704702460020138A63
:101A20000B400BB1012000E000207047CA43028246
:101A3000704730B50246002000230024158A05EACD
:101A40000103958905EA010413B10CB1012000E0FE
:101A5000002030BDCA4302827047000010B5044622
:101A6000FB48844209D101218803FFF79FF8002138
:101A70004FF48040FFF79AF832E0F648844209D1EB
:101A800001214804FFF79FF800214FF40030FFF7D1
:101A90009AF825E0F048844209D101218804FFF733
:101AA00092F800214FF48020FFF78DF818E0EB4802
:101AB000844209D10121C804FFF785F800214FF4C1
:101AC0000020FFF780F80BE0E548844208D10121AF
:101AD0000805FFF778F800214FF48010FFF773F83E
:101AE00010BD2DE9F04786B005460E460024A246FB
:101AF00000BFA1460027B08900B100BF2F462C8A45
:101B00004CF6FF700440F08804432C82AC894EF6FA
:101B1000F3100440B08831890843718908430443B5
:101B2000AC81AC8A4FF6FF400440B0890443AC82DC
:101B300001A8FEF7B4FFC648874202D1DDF810A025
:101B400001E0DDF80CA0A88900F4004040B10AEBE8
:101B5000CA0000EB0A1031684900B0FBF1F807E059
:101B60000AEBCA0000EB0A1031688900B0FBF1F8FB
:101B70006420B8FBF0F004012009642101FB108906
:101B8000A88900F4004040B1322000EBC900B0FB4E
:101B9000F1F000F00700044308E0322000EB0910E8
:101BA0006421B0FBF1F000F00F0004432C8106B07B
:101BB000BDE8F0874FF41651016000218180C1809B
:101BC00001810C21418100218181704710B50246BD
:101BD0000020108A4FF2FF0318400B884C882343E3
:101BE0008C882343CC8823431843108210BD0021E6
:101BF000018041808180C180704721B1828942F497
:101C00000052828104E082894DF6FF731A4082817E
:101C10007047F0B50346002400260025002040F65A
:101C20006A17B94200D100BF1846C1F3421401F04F
:101C30001F06012707FA06F5012C01D10C3004E03C
:101C4000022C01D1103000E014301AB107682F4384
:101C5000076002E00768AF430760F0BD1AB1838AEE
:101C60000B43838202E0838A8B4383827047028A1C
:101C70004FF6F0731A400282028A0A4302827047CA
:101C800082894FF2FF731A40828182890A438281DE
:101C9000704721B1828942F00202828104E0828988
:101CA0004FF6FD731A4082817047028A4FF6DF7348
:101CB0001A400282028A0A430282704721B1028AD4
:101CC00042F48042028204E0028A4BF6FF731A401B
:101CD00002827047C1F308028280704701468888FB
:101CE000C0F308007047818941F00101818170478C
:101CF000028BD2B20283028B42EA01220283704736
:101D0000028B02F47F420283028B0A4302837047F4
:101D100021B1828A42F02002828204E0828A4FF658
:101D2000DF731A408282704721B1828A42F010022A
:101D3000828204E0828A4FF6EF731A4082827047F3
:101D400021B1828A42F00802828204E0828A4FF640
:101D5000F7731A408282704721B1828942F40042AF
:101D6000828103E08289C2F30E028281704721B131
:101D7000828A42F40062828204E0828A4FF2FF7318
:101D80001A4082827047828A4FF6FB731A40828221
:101D9000828A0A438282704721B1828A42F002021B
:101DA000828204E0828A4FF6FD731A408282704775
:101DB00002460020B1F5007F00D100BF13880B4020
:101DC0000BB1012000E00020704701F40072B2F571
:101DD000007F00D100BFCA430280704770B5024641
:101DE000002400230025002040F66A16B14200D1ED
:101DF00000BFC1F3421501F01F03012606FA03F3E9
:101E0000012D02D19689334006E0022D02D1168AB7
:101E1000334001E0968A33400C12012606FA04F49E
:101E20001688344013B10CB1012000E0002070BDD1
:101E300010B50022002340F66A14A14200D100BF71
:101E40000A1201249440A3B2DC43048010BD0000B8
:101E5000003801400044004000480040004C004071
:101E60000050004000F088F800F0E4F800F0BAF903
:101E700001F000F800F0E7FD01F0B6F801F057FEC0
:101E800003A002F0A5FA00F07FFE00BFFEE700000D
:101E90000D0AD2B0BBF02057462D4553503832368C
:101EA000362057694669C4A3BFE9B2E2CAD4C0FD6F
:101EB000B3CC0D0A00000000704700BFFEE700BF72
:101EC000FEE700BFFEE700BFFEE7704770477047C0
:101ED00010B500F0F6F810BD10B540F225512048BD
:101EE000FFF77CFFD8B11E48FFF7F8FEC4B21D48CB
:101EF000B0F80004C0F30E0040F2FF3188420EDA61
:101F00001849B1F80014C1F30E00411C154AB2F88B
:101F1000002461F30E021349A1F800240C5440F28E
:101F200024410F48FFF75AFF012817D10D48B0F898
:101F3000000420F4004000F500400A49A1F8000424
:101F40000748FFF7CBFEC4B207A1064801F048FEE0
:101F500008B1012000E000200649087010BD000013
:101F6000004800407C000020434C4F5345440D0A7C
:101F7000000000002C00002000B585B0012188037E
:101F8000FEF7FAFD01210420FEF7F6FD4FF4007084
:101F9000ADF8100018208DF8130003208DF8120002
:101FA00004A92248FEF72CFB4FF48060ADF8100026
:101FB00004208DF8130004A91C48FEF721FB4FF400
:101FC000E13000900020ADF80400ADF80600ADF857
:101FD0000800ADF80C000C20ADF80A006946144862
:101FE000FFF77FFD01211248FFF707FE05B000BD96
:101FF00070B504460D46E1B20D48FFF76BFE00BF19
:1020000080210B48FFF7D4FE0028F9D0204670BD90
:1020100010B5044600BF20210548FFF7C9FE00287F
:10202000F9D00348FFF75AFE10BD00000008014038
:102030000038014030B527480068274AB0FBF2F16C
:10204000B1F1807F01D301201DE021F07F40401ECF
:102050004FF0E022506150170F22002807DA1307D3
:102060001D0E1E4B00F00F04241F1D5503E0130727
:102070001C0E1B4B1C5400BF00204FF0E02290614F
:1020800007201061002008B100BFFEE74FF0E020FC
:10209000006920F001004FF0E021086130BD01B57A
:1020A0001049009808604FF0E020006940F00100FE
:1020B0004FF0E021086100BF0A4800680028FBD10A
:1020C00008BD0848006820B106480068401E054960
:1020D000086070470000002040420F0018ED00E04B
:1020E00000E400E02800002008B54FF4A060FEF7EF
:1020F0002BF927208DF8000000208DF801008DF8C5
:10210000020001208DF803006846FEF722F908BDA1
:1021100000B585B001218804FEF73BFD01210820B0
:10212000FEF72AFD4FF48060ADF8100018208DF8FE
:10213000130003208DF8120004A9F748FEF760FA97
:102140004FF40060ADF8100004208DF8130004A9CE
:10215000F148FEF755FA4FF4E13000900020ADF859
:102160000400ADF80600ADF80800ADF80C000C2036
:10217000ADF80A006946E948FFF7B3FC012240F2D6
:102180002551E648FFF745FD012240F22441E3488E
:10219000FFF73FFDFFF7A8FF0121E048FFF72DFD06
:1021A00005B000BD08B501210820FEF7E5FC4FF49D
:1021B0008070ADF8000010208DF8030003208DF82A
:1021C00002006946D448FEF71BFA01210820FEF7F9
:1021D000D3FC4FF40070ADF800006946CE48FEF71E
:1021E0000FFA08BD10B5FFF7DDFFFFF791FF4FF4C1
:1021F0000071C948FEF7B1FA4FF48071C648FEF786
:10220000AEFA10BD10B54FF40071C348FEF7A7FA3F
:10221000C348FFF744FF4FF40071BF48FEF79DFA33
:1022200010BD2DE9F04106460C4615461F46BD4837
:10223000B0F800046FF30E00BA49A1F8000432466A
:10224000B9A1B64800F069FB1CB915B90120BDE879
:10225000F0814FF47A7107FB01F0FFF720FF0020B7
:10226000B049B1F80014C1F30E01AE4A5054114602
:10227000AFA002F0ADF8B4B1ADB12146A94801F06C
:10228000AFFC08B1012000E0002040B92946A54874
:1022900001F0A6FC08B1012000E0002008B10120F7
:1022A000D5E70020D3E744B121469E4801F098FCD1
:1022B00008B10120CBE70020C9E72946994801F081
:1022C0008FFC08B10120C2E70020C0E710B5002450
:1022D0004FF400719048FEF740FA9648FFF7DFFE92
:1022E0000CE04FF4FA73002293A194A0FFF799FF3A
:1022F00000B110BDFFF786FF601CC4B20A2CF0DBF2
:1023000000BFF6E710B5044624B1012C0AD0022C18
:1023100018D10FE040F6C41389A287A18BA0FFF764
:1023200080FF10BD40F6C41385A283A18AA0FFF7E9
:1023300078FFF6E740F6C41381A27FA189A0FFF7DA
:1023400070FFEEE70020ECE730B59FB004460D4685
:102350002B46224686A101A802F04AF841F28833B2
:10236000002275A101A8FFF75CFF1FB030BD70B55A
:10237000A0B004460D4616462B46224681A102A86F
:10238000009602F035F84FF47A7300226AA102A891
:10239000FFF747FF20B070BD10B586B004460CB102
:1023A000012000E0002002467CA101A802F020F8F4
:1023B0004FF4FA73002260A101A8FFF732FF06B0C4
:1023C00010BDF0B5B9B006460F4614461D4664214F
:1023D00020A801F0FAFB16B1012E10D107E03B4610
:1023E00072A273A120A8009402F002F808E03B4614
:1023F00073A26FA120A8009401F0FAFF00E000BFD3
:1024000000BF052D06DA20AB2A466EA102A801F016
:10241000EFFF04E020AA70A102A801F0E9FF4FF449
:102420007A6371A244A102A8FFF7FBFE39B0F0BDA8
:1024300070B5BCB004460D461646FCB12B460122D1
:102440006DA11EA801F0D4FF324670A1684601F0CC
:10245000CFFF4FF4FA73002237A11EA8FFF7E1FE69
:1024600050B14FF4FA73002233A16846FFF7D9FE4A
:1024700010B101203CB070BD0020FBE72B460022CC
:102480005DA11EA801F0B4FF4FF4FA7300222AA147
:102490001EA8FFF7C6FEEDE710B54FF4FA73002251
:1024A00025A15EA0FFF7BDFEA0B160A11D4801F00F
:1024B00097FB08B1022010BD5FA11A4801F090FB04
:1024C00008B10320F7E75FA1164801F089FB08B1C6
:1024D0000420F0E70020EEE710B500244FF4FA7373
:1024E000002215A14DA0FFF79CFE002812D058A194
:1024F0000C4801F075FB10B144F0010401E024F038
:10250000010457A1074801F06BFB10B144F002042D
:10251000B0E0ADE0CCE00000000C0140004800401D
:1025200020A107007C00002025730D0A0000000098
:102530002573000040420F004F4B00004154000043
:102540006E6F206368616E676500000041542B4325
:10255000574D4F44453D310041542B43574D4F4457
:10256000453D320041542B43574D4F44453D3300C8
:1025700041542B43574A41503D222573222C22259A
:102580007322000041542B43575341503D22257381
:10259000222C222573222C312C25640041542B43FC
:1025A00049504D55583D25640000000054435000EB
:1025B000222573222C222573222C25730000000073
:1025C0005544500041542B43495053544152543DBB
:1025D00025642C257300000041542B43495053546B
:1025E0004152543D25730000414C5245415920430E
:1025F0004F4E4E454354000041542B4349505345E0
:10260000525645523D25642C2573000041542B43FE
:10261000495053544F3D25730000000041542B4353
:1026200049505354415455530000000053544154F1
:1026300055533A320D0A00005354415455533A331E
:102640000D0A00005354415455533A340D0A00000A
:102650002B4349505354415455533A302C000000F9
:102660002B4349505354415455533A312C000000E8
:1026700024F0020464A1684801F0B2FA10B144F0F9
:10268000040401E024F0040464A1634801F0A8FA02
:1026900010B144F0080401E024F0080463A15E488E
:1026A00001F09EFA10B144F0100401E024F010048F
:1026B000204610BD2DE9F04105460F464FF4FA7350
:1026C0000022AFF28C115DA0FFF7ABFD5EA1524876
:1026D00001F086FA06460EB1B61D02E00020BDE804
:1026E000F081002409E0305D2855285D222802D1C0
:1026F0000020285503E0601CC4B2BC42F3DB00BFDD
:102700000120ECE710B54FF4FA730022AFF2D811B4
:102710004FA0FFF786FD08B9002010BD4FF4FA73F3
:102720004FA2AFF2EC114FA0FFF77BFDF5E710B51C
:102730004F48FFF7B4FC4FA14F4800F0EEF84F4868
:10274000FFF7ADFC10BD2DE9F04186B007460C4601
:1027500015461E464FF0000847B12246AFF2302121
:10276000454800F0DAF84FF001081CE0052E06DAC3
:10277000AB1C324642A101A801F03AFE04E0AA1CBB
:1027800044A101A801F034FE4FF47A73002245A160
:1027900001A8FFF746FD4FF47A73002242A12046BC
:1027A000FFF73FFD8046404606B0BDE8F08170B5BA
:1027B000044600251848B0F800046FF30E001649CF
:1027C000A1F800040846B0F8000420F40040A1F885
:1027D000000400BF1048B0F80004C00B0028F9D076
:1027E00000200D49B1F80014C1F30E010A4A5054FB
:1027F0000CB1154605E02EA1074801F0F1F900B132
:10280000054D284670BD00002B4349505354415498
:1028100055533A322C0000007C0000202B434950D5
:102820005354415455533A332C0000002B43495024
:102830005354415455533A342C00000041542B4317
:102840004946535200000000415049502C220000DC
:1028500041542B4349504D4F44453D310000000049
:102860003E00000041542B43495053454E44000064
:1028700040420F002B2B2B000048004020A10700F6
:1028800041542B43495053454E443D25642C256407
:102890000000000041542B43495053454E443D2510
:1028A000640000003E20000053454E44204F4B0082
:1028B0002B49504400000000F0B503460D46164673
:1028C000002729460A2E03D0002008702846F0BDB4
:1028D00033B9302001F8010B002008702846F6E7D4
:1028E000002B03DA2D2001F8010B5B4242F210723B
:1028F0000DE093FBF2F404B937B104F1300001F8B4
:10290000010B04FB123301270A2092FBF0F2002A8C
:10291000EFDC002008702846D9E70FB470B586B008
:1029200006460CA8019073E00B9800785C281CD137
:102930000B98401C0B9000786E2809D072280FD19C
:102940000D213046FFF7C6F90B98401C0B900BE0A9
:102950000A213046FFF7BEF90B98401C0B9003E0AC
:102960000B98401C0B9000BF4BE00B98007825287B
:1029700040D10B98401C0B900078642818D0732825
:1029800033D1019810C801900BE021783046FFF751
:10299000A1F900BF80213046FFF70AFA0028F9D0DC
:1029A000641C20780028F0D10B98401C0B9020E08C
:1029B000019820C801900A2202A92846FFF77CFF4F
:1029C00002AC0BE021783046FFF784F900BF80218C
:1029D0003046FFF7EDF90028F9D0641C2078002874
:1029E000F0D10B98401C0B9003E00B98401C0B900F
:1029F00000BF06E00B9810F8011B0B903046FFF764
:102A000069F900BF80213046FFF7D2F90028F9D0DC
:102A10000B980078002887D106B070BC5DF814FBD5
:102A200008B501214020FEF7A7F84020ADF80000CE
:102A300010208DF8030003208DF8020069465148EC
:102A4000FDF7DEFD08BD10B5FFF7EAFF40214D4858
:102A5000FDF783FE10BD08B54020ADF8000048200A
:102A60008DF8030069464748FDF7CAFD08BD08B563
:102A70004020ADF8000010208DF8030003208DF8F1
:102A8000020069463F48FDF7BBFD08BD70B5002553
:102A9000002424E000BF40213A48FDF744FE00280E
:102AA000F9D02820FFF7FBFA40213648FDF73BFE1E
:102AB00001280DD100BF40213248FDF734FE012826
:102AC000F9D0C4F1070101208840C0B2054304E0F9
:102AD000C4F10701012088408543601CC4B2082C62
:102AE000D8DB284670BD10B50446FFF7C0FF402173
:102AF0002448FDF734FE44F25060FFF7D0FA40213D
:102B00002048FDF72AFE1E20FFF7C9FAFFF7A3FFB2
:102B100040211C48FDF707FE80BB00BF402119483B
:102B2000FDF701FE0028F9D000BF40211548FDF750
:102B3000FAFD0128F9D0FFF7A9FF2070FFF7A6FFE3
:102B40006070FFF7A3FFA070FFF7A0FFE070FFF732
:102B50009DFF2071FFF78BFF40210A48FDF7FDFD27
:102B6000207861780844A1780844E1780844217904
:102B7000884201D1012010BD0020FCE7FFE70020C2
:102B8000F9E70000001801409CB0642103A801F09F
:102B90001CF80025002678A001F01AFC4FF4807183
:102BA0007C48FDF7DAFDFFF791FB0020FFF7AAFB59
:102BB00000BF79A17BA0FFF7C7FB0028F9D0002058
:102BC000FFF7EAFB00BF052377A279A10020FFF7FA
:102BD000F8FB0028F7D000BFFFF794FD0028FBD0DA
:102BE00077A001F0F5FB7CA103A801F001FC05230F
:102BF000002203A90120FFF7A6FD03A978A001F098
:102C0000E7FBB7E00120FFF7D2FD0546294677A094
:102C100001F0DEFB7648FFF742FA76480168284665
:102C200000F0F0FF70B901215A48FDF798FD72A13C
:102C300003A801F0DDFB0523002203A90120FFF713
:102C400082FD6EE06D480168284600F0DBFF70B938
:102C500001215048FDF781FD67A103A801F0C8FBE1
:102C60000523002203A90120FFF76DFD59E0644808
:102C70000168284600F0C6FFE8B96248FFF733FF55
:102C8000012813D15F48C0785E498978CDE90010EA
:102C90005C48437802785CA103A801F0A9FB0523F6
:102CA000002203A90120FFF74EFD3AE05AA103A834
:102CB00001F09EFB35E05D480168284600F0A2FF68
:102CC00078BB22E00120FFF772FD06464848FFF777
:102CD000E6F957480168304600F094FF20B93146C4
:102CE00042A001F075FB11E0314640A001F070FBFD
:102CF000304600F088FC40A103A801F079FB0523D1
:102D0000002203A90120FFF71EFDDBE700BF3AA167
:102D100003A801F06DFB0523002203A90120FFF7A2
:102D200012FD44480078002824D0FFF700FD00BFC2
:102D3000FFF7B2FB0446002CFAD0042C15D13EA0BC
:102D400001F046FB00BF14A116A0FFF7FDFA002812
:102D5000F9D000BF052314A215A10020FFF731FB15
:102D60000028F7D03CA001F033FB00BFFFF7CAFCFE
:102D70000028FBD046E700000D0AD5FDD4DAC5E4F3
:102D8000D6C32045535038323636202E2E2E2E2EC6
:102D90002E0D0A00000C01403139393930383039F4
:102DA0000000000077656E003838383800000000F9
:102DB0003137322E32302E31302E313400000000C7
:102DC0000D0AC5E4D6C3204553503832363620CDDF
:102DD000EAB1CF0D0A00000073746172740D0A002D
:102DE000257320D2D1B7A2CBCD0A000025730A00EB
:102DF000A0860100300000204F4B0000340000206E
:102E0000380000204400002025642E25642C256411
:102E10002E2564200000000052656164204448545F
:102E20003131204552524F52210D0A003C00002002
:102E3000400000202C0000200D0AD5FDD4DAD6D8A1
:102E4000C1ACC8C8B5E3BACDB7FECEF1C6F7202EE7
:102E50002E2E2E2E2E0D0A000D0AD6D8C1ACC8C8B3
:102E6000B5E3BACDB7FECEF1C6F7B3C9B9A60D0A20
:102E70000000000008B501210820FDF77DFE0120BB
:102E8000ADF8000010208DF8030003208DF802003B
:102E900069460448FDF7B4FB01210248FDF75DFCDB
:102EA00008BD0000000C014008B54FF4E060FDF7DC
:102EB0004BFA1C208DF8000000208DF801008DF8E1
:102EC000020001208DF803006846FDF742FA08BDB4
:102ED00008B501210420FDF74FFE0820ADF80000E1
:102EE00018208DF8030003208DF802006946FE4883
:102EF000FDF786FB01210820FDF73EFE4FF48040E0
:102F0000ADF8000010208DF8030003208DF80200BA
:102F10006946F648FDF774FB4FF48041F348FDF72E
:102F20001EFC01211020FDF727FE4FF48050ADF864
:102F3000000010208DF8030003208DF80200694680
:102F4000EA48FDF75DFB4FF48051E848FDF705FCCA
:102F500008BD00B587B001210846FDF71AFE04A898
:102F6000FEF76EFA0120ADF814004820ADF810000D
:102F70000020ADF81600ADF8120004A94FF0804013
:102F8000FDF732FF7020ADF800000120ADF802001F
:102F90000020ADF80400ADF806000220ADF80800EE
:102FA0000020ADF80C0069464FF08040FEF733F882
:102FB0000821C806FEF7C3FB01218807FEF770FB56
:102FC00001218807FEF7C4FC01218807FEF742FDB6
:102FD000012211469007FEF77EFA00214FF0804053
:102FE000FEF75EFA07B000BD10B5FFF771FFFFF7FF
:102FF0005BFFFFF7AEFF10BD10B5044674B14FF490
:103000008051BA48FDF7ABFBB948007820F00400C6
:10301000B7490870B74801F0DBF90EE04FF4805172
:10302000B248FDF79AFBB248007820F00400001D7A
:10303000AF490870B04801F0CBF910BD2DE9F04F51
:1030400089B004460D4616469B46002C08DAAB486C
:10305000007820F008000830A8490870644205E0B4
:10306000A648007820F00800A4490870A34800781A
:10307000C0F3C00028B94FF480419C48FDF76FFBB6
:1030800004E04FF480419948FDF767FB012C1FD104
:10309000A01E9A4948610846007820F00700801C6D
:1030A00008704FF47A7048609148007820F0010071
:1030B000401C8F49087014210807FEF787FC0A217D
:1030C0004807FEF787FC01218807FEF7E9F981E050
:1030D000002C7FD08A48B0FBFBF088490861894802
:1030E000B0FBF5F0019000F0A3FE074601F0FCFDF7
:1030F0000022854BCDE9020100F0A8FD0022834BA0
:10310000CDE9040100F014FECDE9060100F09DFEBA
:103110007A4948604FF49D7068436421B0FBF1F137
:103120000BFB0BF0B0FBF1F9B9F1000F01D14FF03F
:10313000010904FB06F0A919B0FBF1FABAF1000F7E
:1031400001D14FF0010ACA4504D8AAEB04006B492B
:10315000C86006E009FB05F0B0FBF6F040426749A5
:10316000C8606648C06818B94FF0FF306349C8604E
:103170006248C0682044614988600846406809691F
:1031800088420AD85D4800695C4948600846007872
:1031900020F00700C01C087006E05848007820F0B6
:1031A0000700401C554908700020544948615048A8
:1031B000007820F00100401C4D49087014210807D8
:1031C000FEF704FC0A214807FEF704FC01218807EA
:1031D000FEF766F909B0BDE8F08F012805D14C492A
:1031E0000968491E4A4A116004E049490968491CB6
:1031F000474A1160704710B501218807FEF719FC96
:1032000000286FD001218807FEF724FC3B48406866
:10321000C0F34F003F4908803848808809068885F8
:1032200033480078C0F3800028B93448007820F093
:103230000700324908703148007800F0070030B1CB
:1032400001281DD002284ED0032818D193E0002079
:1032500031490860314908604FF08040008C20F40B
:1032600080504FF08041088400214FF08040FEF7ED
:1032700017F91F48007820F001001D490870E3E0AD
:103280004FF08040008C40F480504FF08041088423
:103290001A490978C1F3C000FFF79FFF1E48006874
:1032A000401C1D49086015484069401C134948618D
:1032B0000846406819490968022202FB00110F48BC
:1032C00040698000401C91FBF0F00C4949680C1AE1
:1032D0000A4840681149096802FB00110748406923
:1032E00080001DE0B3E06CE000080140000C0140EC
:1032F00050000020F84D0008404E000880040020D7
:10330000EBF7170097AFB9120068BA4000005940B8
:103310004C00002040000040580000205C000020CD
:10332000401C91FBF0F200FB12104949086049482B
:1033300080684949096888420AD84648C0684549B2
:1033400048610846007820F00700801C087011E0F2
:1033500040480069A0420DD3404804603D480469DC
:1033600000203B4908603B48007820F00700C01C63
:103370003849087068E04FF08040008C40F480507D
:103380004FF08041088433490978C1F3C000FFF74A
:1033900024FF31480068401C2F4908602D4804690B
:1033A0008068096888420BD82A48C0682949486162
:1033B0002A4804680846007820F00700801C08703E
:1033C00042E04FF08040008C40F480504FF080414C
:1033D000088420490978C1F3C000FFF7FEFE1E48AB
:1033E0000068401C1C4908601A484069401C194983
:1033F00048610846406816490968022202FB00112C
:10340000144840698000401C91FBF0F01149496864
:103410000C1A104840680E49096802FB00110D485B
:1034200040698000401C91FBF0F200FB121008493B
:10343000086008484069002805DB0648007820F04D
:1034400007000449087000BF00BF0248446010BD77
:103450005C00002080040020580000205400002060
:1034600010B5DC4800F0B4FFDBA000F0B1FFDEA037
:1034700000F0AEFFE24800F0ABFFE24800F0A8FF2A
:10348000E14800F0A5FFE14800F0A2FFE0A000F055
:103490009FFFE9A000F09CFFF7A000F099FFFE4815
:1034A00000F096FF10BD2DE9F04F87B004460D46A1
:1034B00016469946284600F0AAFC07460022F74B1C
:1034C00000F0C4FB82460022F54B00F031FC0246BE
:1034D0000B46CDE90401F3A000F07AFF304600F07E
:1034E00096FC82460022ED4B00F0B0FB074600221E
:1034F000EB4B00F01DFC02460B46CDE90401EFA0AA
:1035000000F066FF484600F082FC8246F14AF24B2A
:1035100000F09CFB07460022E14B00F009FCCDE9DE
:103520000401484600F073FC07460022DB4B00F024
:103530008DFB82460022DA4B00F0FAFBCDE9020156
:10354000DDE90401CDE90001E4A0DDE9022300F09A
:103550003FFFEAA0109900F03BFF2146EBA000F0EE
:1035600037FF07B0BDE8F08F01B502E00098401EBC
:10357000009000980028F9D108BD7FB50024E9A289
:1035800007CA01AB07C3002538E00C2C00D100248A
:1035900005E0E7480078C0F3800000B905E0E448A2
:1035A000007800F001000028F3D100BFE048007867
:1035B000C0F3800000B923E0DE48FFF7D5FF01A982
:1035C00009574FF4C87201FB02F042F210734FF436
:1035D000FA421146FFF732FD01A800574FF4C871B7
:1035E000484342F210734FF4FA4211460090D24819
:1035F0000068FFF758FF601CC4B26D1C0C2DC4DBC3
:1036000000BF00247FBD2DE9F04FC3B081460024E8
:103610000025002600200290494603A800F000FB88
:10362000C648007878B10020C4490870C4480068D2
:103630000090C4480368C4480268C4480168BE4892
:103640000068FFF730FF9DF80C006D2874D19DF8DD
:103650000D00202815D10DF10E0000F0EAFAB8494E
:103660000860B8480368B8480268B8480168B448B8
:103670000068FFF7E3FC01200290B5A000F0A8FE6F
:10368000C8E19DF80D006F28FAD19DF80E0076284C
:10369000F6D19DF80F006528F2D19DF81000202882
:1036A000EED106270DF1110000F0C3FAA44908601D
:1036B00000E07F1C03A8C05D202803D003A8C05DE4
:1036C0000D28F6D17F1C03A9C81900F0B2FA9F4952
:1036D000086000E07F1C03A8C05D202803D003A879
:1036E000C05D0D28F6D17F1C03A9C81900F0A1FA0E
:1036F0009549086000E07F1C03A8C05D202803D026
:1037000003A8C05D0D28F6D17F1C03A9C81900F0DD
:1037100090FA8C490860084603688B4802688B4819
:10372000016887480068FFF789FC0120029088A0A3
:1037300000F04EFE6EE1FFE79DF80C00612826D1F7
:103740009DF80D0020289BD10DF10E0000F071FABC
:103750000446472C94DBB4F5FA4F91DC7B480460B7
:10376000006800F054FB00224C4BCDE9000100F052
:103770006DFA824600224A4B00F0DAFA07463A46D2
:103780000B4648A000F024FE0120029042E19DF883
:103790000C0064281BD19DF80D002028CAD10DF122
:1037A0000E0000F046FA0546472D11DBB5F5FA4F3D
:1037B0000EDC65480560006800F029FB0746002222
:1037C000364B00F043FA82460022354BC4E0CFE08E
:1037D000F9E00000245000080A0DCAE4C8EBC3FC5D
:1037E000C1EEA3BA000000000A0D3C203F203E209D
:1037F0002020202020202DB0EFD6FAB2CBB5A50096
:10380000D44E0008204F00086C4F0008B84F000845
:103810000A0D6D6F7665205B73746570735D205B58
:10382000616363656C5D205B646563656C5D205BF3
:1038300073706565645D00000A0D20202020202043
:103840002020202020202DD2D4C9E8B6A8B5C4B2AB
:10385000BDCAFDA1A2BCD3CBD9B6C8A3ACBCF5CB25
:10386000D9B6C8A3ACD7EEB4F3CBD9B6C8BFAACAF1
:10387000BCD4CBB6AF0000000A0D3C456E74657237
:10388000BCFC3E2020202DD6D8B8B4D7EEBAF3D257
:10389000BBB4CEB6AFD7F700884E00080000F03FAB
:1038A000000059400A0DBCD3CBD9B6C83A252E32F8
:1038B000667261642F735E32000000002020BCF548
:1038C000CBD9B6C83A252E32667261642F735E3248
:1038D000000000009A999999991923402020D7EE69
:1038E000B4F3CBD9B6C83A252E32667261642F7311
:1038F00028252E326672706D290000002020D2C665
:10390000B6AFB2BDCAFD3A25640000000A0DB5E7A6
:10391000BBFAB5B1C7B0CEBBD6C33A2025640D0AF9
:103920000000000002FE02FE04FC04FCF80AEC1495
:1039300050000020FFFF0F004C000020600000201E
:1039400064000020700000206C000020680000204F
:103950000A0D20200000000000F0EAF902460B46A4
:10396000CDE900014AA000F033FD0120029051E0B2
:103970009DF80C00732827D19DF80D00202849D10F
:103980000DF10E0000F055F906460C2E42DB44F610
:10399000206086423EDC44480660006800F037FA4A
:1039A0000022424BCDE9000100F050F90746002209
:1039B0003F4B00F0BDF9824652460B463DA000F059
:1039C00007FD0120029025E09DF80C000D2803D092
:1039D0009DF80C000A280CD1334803683B48026864
:1039E0003B4801683B480068FFF728FB0120029034
:1039F00010E09DF80C003F2804D1FFF731FD0120B5
:103A0000029007E09DF80C00742803D1FFF7B5FD84
:103A1000012002903048007820F002002E49087002
:103A20004FF4807103A800F0D0F82B48007800F024
:103A3000010050B328480078C0F3800010B127A0DF
:103A400000F0C6FC05E024480078C0F3800000B90F
:103A500005E02148007800F001000028F3D100BF04
:103A60001D480078C0F3800078B121A000F0B0FCC0
:103A70001848006800900C4803681448026814480D
:103A800001681D480068FFF70EFD43B0BDE8F08FE8
:103A90000A0DBCF5CBD9B6C83A252E3266726164E0
:103AA0002F735E3200000000700000200000F03F25
:103AB000000059400A0DD7EEB4F3CBD9B6C83A2569
:103AC0002E32667261642F73000000006C000020CB
:103AD0006800002064000020500000200A0DB5E7B7
:103AE000BBFAD5FDD4DAD4CBD0D02E2E2E000000D8
:103AF0004F4B0A0D000000004C00002008B54FF4A9
:103B0000C060FCF721FC06208DF8000001208DF834
:103B100001008DF802008DF803006846FCF719FCDF
:103B200028208DF800006846FCF713FC08BD0EB590
:103B300001210520FDF720F8FFF7E0FF0120ADF897
:103B4000080004208DF80B0002A91A48FCF758FD64
:103B500000210846FCF76AFE0120009000208DF845
:103B6000040008208DF8050001208DF80600684645
:103B7000FCF766FC4FF40050ADF8080004208DF807
:103B80000B0002A90C48FCF73BFD0D210220FCF7BD
:103B90004DFE4FF40050009000208DF804000C20E2
:103BA0008DF8050001208DF806006846FCF748FCFA
:103BB0000EBD00000008014000100140D2B201E03B
:103BC00000F8012B491EFBD270470022F6E710B522
:103BD00013460A4604461946FFF7F0FF204610BD7B
:103BE00030B505462A460B4612F8010B13F8014B77
:103BF00008B1A042F8D01CB1002802D06D1CF1E73A
:103C0000284630BD10B5002200E0521C835C8C5C5D
:103C1000A34201D1002BF8D1D8B2E1B2401A10BDB5
:103C2000034611F8012B00F8012B002AF9D11846A0
:103C3000704770B5064600F0EFFB046805460A229F
:103C40000021304600F071F92C6070BD2DE9FE4F67
:103C500081EA030404F0004421F0004100944FF095
:103C6000000B23F0004350EA01045ED052EA030443
:103C70005BD0C3F30A54C1F30A552C44A4F2F334C5
:103C80000194A0FB0254C1F3130141F48011C3F36A
:103C9000130343F4801301FB024400FB034E840A28
:103CA000970A44EA815447EA8357A4FB07680295C0
:103CB0008D0A05FB07854FEA932C04FB0C5427055E
:103CC000029D4FEA065847EA1637B5EB08056EEB3A
:103CD000070C870E920E47EA811742EA8312A7FB70
:103CE0000201B6EB0B0164EB00042B0D43EA0C332D
:103CF0005E1844EB1C50DA465146E7FB0201C5F35F
:103D000013044FEA0B3343EA14534FEA0432019C85
:103D100043EA0603A4F10C040294009CCDE900B42C
:103D200000F04AF903B0BDE8F08F00200146F9E742
:103D30002DE9F04D81EA030404F0004B21F0004529
:103D400014464FF0000A23F0004150EA050220D04B
:103D500054EA01021DD0C5F30A570246C5F3130306
:103D6000C1F31300C1F30A5640F4801543F48013E5
:103D7000A7EB0608101BD64608F2FD3873EB0500CA
:103D800002D308F1010801E092185B41B8F1000F7D
:103D900003DA00200146BDE8F08D00204FF48011C9
:103DA000064684460EE0171B73EB050705D3121B6E
:103DB00063EB050306434CEA010C49084FEA300067
:103DC00092185B4150EA0107EDD152EA030012D08C
:103DD00082EA040083EA0501084305D0101BAB41C9
:103DE00006D20122002306E000224FF0004302E049
:103DF0006FF0010253101AEB06004CEB085110EB68
:103E00000A0041EB0B01BDE8F04D00F0C6B80EB55D
:103E1000C10F80EAE0700844CA07002140F2334332
:103E20008DE80E000A460B4600F0C6F803B000BD50
:103E30000EB540F2334102910021CDE900110A464E
:103E40000B4600F0B9F803B000BDC1F30A5210B53B
:103E5000C1F3130140F2FF3341F480119A4201DAB9
:103E6000002010BD40F233439A42A2F2334203DCF9
:103E7000524200F04AF810BD904010BD30B50B46DC
:103E8000014600202022012409E021FA02F59D428A
:103E900005D303FA02F5491B04FA02F52844151E5E
:103EA000A2F10102F1DC30BD2DE9F05F05460020F2
:103EB00092469B4688460646814640241BE028469B
:103EC00041464746224600F020F853465A46C01A5B
:103ED000914110D311461846224600F0F5F92D1AEB
:103EE00067EB01084F4622460120002100F0ECF963
:103EF00017EB00094E41201EA4F10104DFDC484607
:103F000031462A464346BDE8F09F202A04DB203A8A
:103F100021FA02F00021704721FA02F3D040C2F1E9
:103F2000200291400843194670472DE9F047914619
:103F30000F4680460446002614F8015B2DB100F0C0
:103F4000E5F90068405DC007F6D12B2D02D02D2D7C
:103F500018D0641E4A463946204600F0DBF927B1E6
:103F60003968A14201D1C7F8008071054FF0020401
:103F70000BD54042002803DD00F04EFA0460A00794
:103F8000BDE8F08746F48066E4E70028F8DA00F040
:103F900043FA04606FF00040F2E710B5141E73F1AD
:103FA000000408DA401C41F1000192185B411A43F9
:103FB00001D120F0010010BD2DE9F04D92469B4645
:103FC00011B1B1FA81F202E0B0FA80F220329046EB
:103FD00000F07AF904460F4640EA0A0041EA0B0174
:103FE00053465A46084313D0114653EA010019D0EC
:103FF000C8F140025046FFF788FF05460E4650467E
:104000005946424600F060F9084305D0012004E01B
:1040100020463946BDE8F08D0020054346EAE076AB
:104020002C4337430A986305E40AA0EB08000022FA
:10403000FD0A44EA47540A3002D500200146E9E768
:10404000010510196941DDE9084500196941BDE81C
:10405000F04DA2E72DE9FE4F804681EA0300C00F34
:104060000C46009021F0004123F00045B8EB02001F
:10407000A94105D24046214690461C460B460246C1
:1040800023F00040104347D0270DC7F30A00C3F3C5
:104090000A510290401A019040286BDAC3F31300D2
:1040A00040F4801B0098924620B10023D2EB030A13
:1040B00063EB0B0B01985946C0F14002504600F0EB
:1040C00003F906460D4650465946019A00F00BF991
:1040D00010EB08006141002487EA115284EAE7737B
:1040E0001A4340D0009A62B3019A012A4FEA07525C
:1040F00015DC001B61EB02014FF0004202EA07529F
:10410000CDE90042001C41F5801132462B46FFF7F5
:1041100053FF03B0BDE8F08F40462146F9E7001B8E
:1041200061EB0201001C41F5801300185B4120186F
:10413000A2F5001747EB030140EAD570B6196D41AF
:1041400011E06D084FEA360645EAC0754FEA07529E
:10415000001B61EB0201001C41F5801149084FEA88
:1041600030000019514132462B4603B0BDE8F04FF4
:10417000FFF713BF0098012240000023D0EB02029A
:1041800063EBE073009821464FEAE074B8EB00005F
:1041900061EB0401E9E783F000435BE781F0004154
:1041A00058E72DE9F04D00231A461B1A8A4103DB1C
:1041B00000200146BDE8F08DC1F30A52C1F313019E
:1041C00041F480154FF0000BD10702D100186D416A
:1041D000521E0027044640F2FF11384601EB620AE6
:1041E0003E468046024600204FF48011FFF78DFEC8
:1041F000C2197141BB1846EB0100B4EB030C75EB1F
:10420000000C04D3E41A65EB000517460E4624198A
:1042100008F101006D4180463428E3DDF91946EBD1
:104220000600091BA84103D24FF0FF32134601E0FC
:10423000002213461BEB070046EB0A51BDE8F04D88
:10424000FFF7ABBEC1F30A52C1F3130140F2FF33D3
:1042500041F480119A4202DA00200146704740F290
:1042600033439A42A2F2334202DC5242FFF74DBE80
:1042700000F02AB830B5041E71F1000404DB4FF0E1
:104280000044404264EB0101141E73F1000405DB9D
:104290001C464FF00043524263EB0403994208BFAF
:1042A000904230BD064C074D06E0E06840F0010347
:1042B00094E8070098471034AC42F6D3FBF73CFF74
:1042C0007850000898500008202A04DB203A00FAB1
:1042D00002F1002070479140C2F1200320FA03F35D
:1042E000194390407047202A06DBCB17203A41FA49
:1042F00002F043EAE07306E041FA02F3D040C2F173
:10430000200291400843194670470000004870475A
:10431000B84D00082DE9F05F824600780027154669
:104320008B460AF10104B946302801D09DB113E053
:1043300014F8010B0127782803D0582801D045B183
:104340000AE00DB1102D07D10027102514F8010B3C
:1043500002E0082500E00A250026B0460EE005FB35
:10436000080005FB06F1012701EB10461FFA80F853
:10437000B6F5803F00D3B94614F8010B294600F08A
:1043800018F80028EBDABBF1000F05D00FB1641E5E
:1043900000E05446CBF80040B9F1000F06D000F021
:1043A0003BF802210160C81EBDE8F09F48EA0640C4
:1043B000FAE73A2800D2303820F02002412A01D30F
:1043C000A2F13700884201D34FF0FF307047000060
:1043D0000FB4054B10B503A9044A029800F0E8F8A1
:1043E00010BC5DF814FB0000F11F000874000020F1
:1043F0000FB4084B10B504A902AA039800F0D8F82E
:10440000044602A9002000F06AFC204610BC5DF8BA
:1044100014FB0000DF4C00080048704778000020C3
:1044200002E008C8121F08C1002AFAD1704770477D
:10443000002001E001C1121F002AFBD170470000DB
:104440000149086070470000780000202DE9FF5FF7
:10445000DDE90220010DDDF838B0024318D044F642
:104460001050A1F2FF3141430D140F98012820D0C4
:10447000A5EB0B00401C5FEA000A4FF00004474E1A
:10448000DFF81C91A046504616D5CAF1000728E077
:104490000F98012443A2012808D0002100980F9B07
:1044A000C0E90021C0E90243BDE8FF9F6FEA0B01AC
:1044B000F4E7CBF10000DEE7074612E0F80707D08B
:1044C0002246334640464946FFF7C0FB80468946B0
:1044D0002246334610461946FFF7B8FB04460E46FF
:1044E0007F10002FEAD1DDE90201BAF1000F424648
:1044F0004B4602DAFFF7AAFB01E0FFF719FC04467E
:104500000E460022284BFFF7B5FE03D84FF0FF30D0
:10451000014607E00022254B20463146FFF79AFD71
:10452000FFF790FE102409E0002C0ADB0A2200238A
:10453000FFF7BAFC019B30321A55641E50EA0102A3
:10454000F2D1641C019AC4F1110314440F9A012A98
:1045500003D0012208430DD10AE0084304D0002013
:104560004FF0110B0F9080E7A3EB0B056D1E0DE0D4
:104570005B4504DD4FF0000205F1010504E003DABC
:104580004FF00002A5F10105002AECD000980F9928
:10459000C0E90231C0E9004586E700000000244080
:1045A0000000F03F300000000000F0430000E03F5A
:1045B0002DE9FF4F95B09B468946064600250FE240
:1045C000252877D100242746F84A0121059400E0E8
:1045D000044316F8013F203B01FA03F01042F7D1E3
:1045E00030782A2811D06FF02F033078A0F13002F4
:1045F000092A16D8059A44F0020402EB820203EB62
:1046000042021044761C0590EFE759F8042B0592FE
:10461000002A03DA504244F40054059044F00204A6
:10462000761C30782E2816D116F8010F44F00404B9
:104630002A280DD06FF02F023078A0F13003092B1B
:1046400009D807EB870302EB4303C718761CF3E78F
:1046500059F8047B761C30786C280FD006DC4C2887
:1046600017D068280DD06A2814D104E0742810D01F
:104670007A280FD10DE044F400140AE044F48014C9
:1046800001E044F440147278824202D104F58014AF
:10469000761C761C307866280BD013DC582877D02F
:1046A00009DC002875D04528F6D04628F4D04728E4
:1046B0001AD19DE118E0632835D0642879D06528A7
:1046C00012D195E1702873D008DC6728F1D06928F1
:1046D0006FD06E280DD06F2806D1B5E073282CD08E
:1046E000752875D0782874D05A46179990476D1C54
:1046F00075E1C4F30250022809D003280DD0D9F87F
:10470000001004280DD00D6009F1040967E1D9F803
:104710000010EA17C1E90052F6E7D9F800100D8041
:10472000F2E70D70F0E719F8041B8DF80010002077
:104730008DF80100EA46012003E059F804AB4FF080
:10474000FF3061074FF0000102D40DE008F10101D4
:104750008846B9420FDA8045F8DB1AF808100029BC
:10476000F4D108E008F1010188468142FADB1AF829
:1047700008100029F6D105985B46A0EB08072146F2
:104780003846179A00F094FA284400EB080507E031
:104790004DE029E10DE01AF8010B5A4617999047B0
:1047A000B8F10108F7D25B4621463846179A13E163
:1047B00042E00A220092C4F302524FF0000A022A99
:1047C00008D059F804CB032A4FEAEC710AD00DE067
:1047D00029E02AE009F1070121F00702F2E802C10D
:1047E000914609E00FFA8CFC4FEAEC71042A03D1E0
:1047F0004FFA8CFC4FEAEC71002907DA0A460021D7
:10480000DCF1000C61EB02012D2202E0220504D54F
:104810002B228DF80420012203E0E20701D02022A0
:10482000F7E7904659E00A2102E010220DE010213E
:104830004FF0000A00910BE010224FF0000A44F004
:1048400004040827009203E008224FF0000A0092B7
:10485000C4F30252022A05D059F804CB0021032ADE
:1048600008D009E009F1070121F00702F2E802C1CE
:10487000914605E01FFA8CFC042A01D10CF0FF0CD4
:104880004FF00008220728D5702806D0009B83F03F
:10489000100353EA0A0305D00EE040228DF80420ED
:1048A000012208E05CEA010206D030228DF80420E3
:1048B0008DF8050002229046009B83F0080353EA1E
:1048C0000A030AD15CEA010201D1620705D5302250
:1048D0008DF804204FF001087F1E582804D034A022
:1048E00003900EA802900DE036A0F9E7534660460B
:1048F000009AFFF7D9FA84460398825C0298401E1A
:10490000029002705CEA0100F0D1029806A9081A30
:1049100000F1200A600702D524F4803400E001276A
:10492000574502DDA7EB0A0000E0002000EB0A017A
:10493000009005984144401A0590E00306D45B4678
:104940002146179A059800F0B3F90544002706E0C0
:1049500001A85A46C05D179990476D1C7F1C4745BA
:10496000F6DBE0030CD55B462146179A059800F06C
:104970009FF9054404E030205A46179990476D1C72
:104980000099481E00900029F5DC08E00298029981
:104990005A460078491C0291179990476D1CBAF14C
:1049A0000001AAF1010AF1DC65E10000092801001B
:1049B0003031323334353637383961626364656695
:1049C0000000000030313233343536373839414257
:1049D000434445460000000000F058F90544761CA9
:1049E000307800287FF4ECAD19B02846BDE8F08F90
:1049F000620700D4062709F1070222F0070CFCE841
:104A00000223E14603F000485FEA080C02D00FF2EF
:104A1000702C0DE05FEA045C02D50FF2682C07E011
:104A20005FEAC47C02D00FF2602C01E0AFF2700CA0
:104A30004FF0FF3823F00043CDF850C065280CD06C
:104A400006DC452809D046281DD047283DD13DE049
:104A5000662818D067287ED138E00021112F01DBAD
:104A6000112000E0781CCDE9000106A90EA8FFF78F
:104A7000EDFCDDE90F010E9A03910021009207F190
:104A8000010A04914DE04FF000400097CDE901107C
:104A900006A90EA8FFF7DAFCDDE90F0203920E9BD0
:104AA00011990022DDF80CA00093049211B9791C31
:104AB00000EB010AB7EB0A0004D4C0F1FF3007F1A4
:104AC000010A0490AAEB0700019044E0012F00DAEC
:104AD00001270021112F01DD112000E03846CDE92A
:104AE000000106A90EA8FFF7B1FCDDE90F010E9A3F
:104AF0000391002104910092BA4621070CD4039936
:104B0000514500DA8A46BAF1010F05DD009AAAF193
:104B10000101515C302908D0B84202DA10F1040FCB
:104B200006DA0121CDE9011015E0AAF10101E9E75A
:104B3000002805DC049901440491AAEB000102E07D
:104B4000411C514500DD8A460499401A401C0190E1
:104B50004FF000400290200704D40198504501DB3B
:104B6000CDF8048000208DF84F0002980DF14F071A
:104B7000B0F1004F25D02B200E9002984FF0020884
:104B800000280CDA404202902D200E9007E00A2106
:104B90000298FFF773F93031029007F8011DB8F160
:104BA0000001A8F10108F2DC02980028EFD1791E7B
:104BB0000E980870307800F0200040F0450007F8AB
:104BC000020D12A8C01B00F107081498007800B16C
:104BD000012000EB0A01019801EBE07105984144C6
:104BE000401A401E0590E00306D45B462146179A02
:104BF000059800F05DF805441498007818B15A46FD
:104C0000179990476D1CE00324D55B462146179AFF
:104C1000059800F04DF805441CE00498002807DBD7
:104C2000DDE90301884203DD0098405C179901E04B
:104C3000179930205A469047049805F10105401C09
:104C400004900198401E019004D12E205A461799D5
:104C500090476D1CBAF10001AAF1010ADDDC05E004
:104C600017F8010B5A46179990476D1CB8F10001CF
:104C7000A8F10108F4DC5B462146179A0598ABE6DB
:104C80002D0000002B000000200000002DE9F04165
:104C9000044600251E461746880404D405E039461C
:104CA0002020B0476D1C641EF9D52846BDE8F08170
:104CB0002DE9F041044600251E469046C80301D563
:104CC000302700E02027880404D505E04146384617
:104CD000B0476D1C641EF9D52846BDE8F0810A680E
:104CE000531C0B60107070472DE9F04106460F46CB
:104CF000FFF757FA041E0D4618BF0120284320F085
:104D00000040C0F17F6000F1E040C00F0ED0301CC9
:104D100018BF0120384320F00040C0F17F6000F14F
:104D2000E040C00F04BF0120FFF78AFB2046294660
:104D3000BDE8F0810040404040404040404041419B
:104D40004141414040404040404040404040404060
:104D500040404040400502020202020202020202FA
:104D600002020202022020202020202020202002F7
:104D70000202020202029090909090901010101087
:104D80001010101010101010101010101010101023
:104D900002020202020288888888888808080808B7
:104DA0000808080808080808080808080808080883
:104DB0000202020240000000354D000864687431B0
:104DC000310000006C65645F6F6666006C65645F4F
:104DD0006F6E00007374657070696E675F6D6F74DD
:104DE0006F7200007374657070696E675F6D6F74C9
:104DF0006F725F65786974000A0DC7FDB6AFC6F7BC
:104E0000BDFBD6B9CAE4B3F6A3A8CDD1BBFAD7B4DB
:104E1000CCACA3A9B4CBCAB1B5E7BBFACEAACEDE5F
:104E2000B1A3B3D6C1A6BED8D7B4CCACA3ACBFC9CE
:104E3000D2D4CAD6B6AFD0FDD7AAB5E7BBFA000028
:104E40000A0DC7FDB6AFC6F7BBD6B8B4D4CBD0D029
:104E5000A3ACB4CBCAB1B5E7BBFACEAAB1A3B3D663
:104E6000C1A6BED8D7B4CCACA3ACB4CBCAB1B4AE97
:104E7000BFDAD6B8C1EEBFC9D2D4D5FDB3A3BFD86F
:104E8000D6C6B5E7BBFA00000A0DBFAAB7A2B0E5C7
:104E9000B0B4BCFCA3AC4B455931A3BAC7FDB6AF07
:104EA000C6F7BDFBD6B9CAE4B3F628CDD1BBFAD755
:104EB000B4CCAC2920204B455932A3BAC7FDB6AFBC
:104EC000C6F7BBD6B8B4D5FDB3A3B9A4D7F70A0DBE
:104ED000200000000A0D615B646174615D20202088
:104EE00020202DC9E8D6C3B2BDBDF8B5E7BBFAB5E1
:104EF000C4BCD3CBD9B6C8A3A8B7B6CEA7A3BA377C
:104F000031A1AA3332303030A3A9B5A5CEBBCEAA89
:104F1000A3BA302E30317261642F735E320000000C
:104F20000A0D645B646174615D20202020202DC91E
:104F3000E8D6C3B2BDBDF8B5E7BBFAB5C4BCF5CB86
:104F4000D9B6C8A3A8B7B6CEA7A3BA3731A1AA339A
:104F500032303030A3A9B5A5CEBBCEAAA3BA302E2D
:104F600030317261642F735E320000000A0D735B92
:104F7000646174615D20202020202DC9E8D6C3B271
:104F8000BDBDF8B5E7BBFAB5C4D7EEB4F3CBD9B61F
:104F9000C8A3A8B7B6CEA7A3BA3132A1AA3330307E
:104FA00030A3A9B5A5CEBBCEAAA3BA302E3031729C
:104FB00061642F73000000000A0D6D5B6461746111
:104FC0005D20202020202DD2D4C9E8B6A8B5C4B2D7
:104FD000BDCAFDD2C6B6AFB2BDBDF8B5E7BBFAA338
:104FE000A8B7B6CEA7A3BA2D32313437343833360A
:104FF0003437A1AA32313437343833363437A3AC9E
:10500000C6E4D6D0D5FDCAFDCEAACBB3CAB1D5EB86
:10501000A3ACB8BACAFDCEAAC4E6CAB1D5EBA3A95F
:10502000000000000A0DA1AAA1AAA1AAA1AAA1AAF2
:10503000A1AAA1AAA1AAA1AAA1AAA1AAA1AAA1AA18
:10504000A1AAD2B0BBF0B2BDBDF8B5E7BBFAC7FDAF
:10505000B6AFD1DDCABEB3CCD0F2A1AAA1AAA1AA93
:10506000A1AAA1AAA1AAA1AAA1AAA1AAA1AAA1AAE8
:10507000A1AAA1AAA1AA000098500008000000203F
:105080007C00000020440008145100087C0000202F
:105090001C0800003044000800A24A040000000080
:1050A00000000000010203040607080900000000D8
:1050B00001020304010203040607080902040608AA
:1050C0000000000000000000CC4D0008C44D0008A6
:1050D000BC4D0008D44D0008E44D0008000000005D
:1050E00000000000000000000400000000000000BC
:1050F000000000000000000001000000D0070000D8
:10510000007D0000007D0000581B00000000000032
:04511000000000009B
:0400000508000131BD
:00000001FF
